{
  "contractName": "IPFSStorage",
  "abi": [
    {
      "inputs": [],
      "stateMutability": "nonpayable",
      "type": "constructor"
    },
    {
      "anonymous": false,
      "inputs": [
        {
          "indexed": true,
          "internalType": "address",
          "name": "sender",
          "type": "address"
        },
        {
          "indexed": false,
          "internalType": "string",
          "name": "ipfsHash",
          "type": "string"
        },
        {
          "indexed": false,
          "internalType": "uint256",
          "name": "timestamp",
          "type": "uint256"
        }
      ],
      "name": "HashStored",
      "type": "event"
    },
    {
      "inputs": [],
      "name": "owner",
      "outputs": [
        {
          "internalType": "address",
          "name": "",
          "type": "address"
        }
      ],
      "stateMutability": "view",
      "type": "function",
      "constant": true
    },
    {
      "inputs": [
        {
          "internalType": "string",
          "name": "_ipfsHash",
          "type": "string"
        }
      ],
      "name": "setHash",
      "outputs": [],
      "stateMutability": "nonpayable",
      "type": "function"
    },
    {
      "inputs": [],
      "name": "getHash",
      "outputs": [
        {
          "internalType": "string",
          "name": "",
          "type": "string"
        }
      ],
      "stateMutability": "view",
      "type": "function",
      "constant": true
    },
    {
      "inputs": [
        {
          "internalType": "string",
          "name": "_fileId",
          "type": "string"
        },
        {
          "internalType": "string",
          "name": "_ipfsHash",
          "type": "string"
        }
      ],
      "name": "setFileHash",
      "outputs": [],
      "stateMutability": "nonpayable",
      "type": "function"
    },
    {
      "inputs": [
        {
          "internalType": "string",
          "name": "_fileId",
          "type": "string"
        }
      ],
      "name": "getFileHash",
      "outputs": [
        {
          "internalType": "string",
          "name": "",
          "type": "string"
        }
      ],
      "stateMutability": "view",
      "type": "function",
      "constant": true
    },
    {
      "inputs": [],
      "name": "getFileCount",
      "outputs": [
        {
          "internalType": "uint256",
          "name": "",
          "type": "uint256"
        }
      ],
      "stateMutability": "view",
      "type": "function",
      "constant": true
    },
    {
      "inputs": [],
      "name": "getAllFileIds",
      "outputs": [
        {
          "internalType": "string[]",
          "name": "",
          "type": "string[]"
        }
      ],
      "stateMutability": "view",
      "type": "function",
      "constant": true
    }
  ],
  "bytecode": "0x608060405234801561001057600080fd5b5033600160006101000a81548173ffffffffffffffffffffffffffffffffffffffff021916908373ffffffffffffffffffffffffffffffffffffffff160217905550610eb0806100616000396000f3fe608060405234801561001057600080fd5b506004361061007d5760003560e01c8063b3ad051a1161005b578063b3ad051a146100da578063bab50cc9146100f6578063d13319c414610114578063f880680b146101325761007d565b806302e0c022146100825780631ed83fd4146100a05780638da5cb5b146100bc575b600080fd5b61008a610162565b6040516100979190610719565b60405180910390f35b6100ba60048036038101906100b59190610884565b61023b565b005b6100c46102e2565b6040516100d1919061090e565b60405180910390f35b6100f460048036038101906100ef9190610929565b610308565b005b6100fe610478565b60405161010b91906109ba565b60405180910390f35b61011c610485565b6040516101299190610a1f565b60405180910390f35b61014c60048036038101906101479190610884565b610517565b6040516101599190610a1f565b60405180910390f35b60606003805480602002602001604051908101604052809291908181526020016000905b828210156102325783829060005260206000200180546101a590610a70565b80601f01602080910402602001604051908101604052809291908181526020018280546101d190610a70565b801561021e5780601f106101f35761010080835404028352916020019161021e565b820191906000526020600020905b81548152906001019060200180831161020157829003601f168201915b505050505081526020019060010190610186565b50505050905090565b600081511161027f576040517f08c379a000000000000000000000000000000000000000000000000000000000815260040161027690610aed565b60405180910390fd5b806000908161028e9190610cb9565b503373ffffffffffffffffffffffffffffffffffffffff167f1b242d48a93f9488bc864549cf53905f87e23aff1ba2c88feadac8f57de16fd682426040516102d7929190610d8b565b60405180910390a250565b600160009054906101000a900473ffffffffffffffffffffffffffffffffffffffff1681565b600082511161034c576040517f08c379a000000000000000000000000000000000000000000000000000000000815260040161034390610e07565b60405180910390fd5b6000815111610390576040517f08c379a000000000000000000000000000000000000000000000000000000000815260040161038790610aed565b60405180910390fd5b60006002836040516103a29190610e63565b908152602001604051809103902080546103bb90610a70565b9050036103f8576003829080600181540180825580915050600190039060005260206000200160009091909190915090816103f69190610cb9565b505b806002836040516104099190610e63565b908152602001604051809103902090816104239190610cb9565b503373ffffffffffffffffffffffffffffffffffffffff167f1b242d48a93f9488bc864549cf53905f87e23aff1ba2c88feadac8f57de16fd6824260405161046c929190610d8b565b60405180910390a25050565b6000600380549050905090565b60606000805461049490610a70565b80601f01602080910402602001604051908101604052809291908181526020018280546104c090610a70565b801561050d5780601f106104e25761010080835404028352916020019161050d565b820191906000526020600020905b8154815290600101906020018083116104f057829003601f168201915b5050505050905090565b60606002826040516105299190610e63565b9081526020016040518091039020805461054290610a70565b80601f016020809104026020016040519081016040528092919081815260200182805461056e90610a70565b80156105bb5780601f10610590576101008083540402835291602001916105bb565b820191906000526020600020905b81548152906001019060200180831161059e57829003601f168201915b50505050509050919050565b600081519050919050565b600082825260208201905092915050565b6000819050602082019050919050565b600081519050919050565b600082825260208201905092915050565b60005b8381101561062d578082015181840152602081019050610612565b60008484015250505050565b6000601f19601f8301169050919050565b6000610655826105f3565b61065f81856105fe565b935061066f81856020860161060f565b61067881610639565b840191505092915050565b600061068f838361064a565b905092915050565b6000602082019050919050565b60006106af826105c7565b6106b981856105d2565b9350836020820285016106cb856105e3565b8060005b8581101561070757848403895281516106e88582610683565b94506106f383610697565b925060208a019950506001810190506106cf565b50829750879550505050505092915050565b6000602082019050818103600083015261073381846106a4565b905092915050565b6000604051905090565b600080fd5b600080fd5b600080fd5b600080fd5b7f4e487b7100000000000000000000000000000000000000000000000000000000600052604160045260246000fd5b61079182610639565b810181811067ffffffffffffffff821117156107b0576107af610759565b5b80604052505050565b60006107c361073b565b90506107cf8282610788565b919050565b600067ffffffffffffffff8211156107ef576107ee610759565b5b6107f882610639565b9050602081019050919050565b82818337600083830152505050565b6000610827610822846107d4565b6107b9565b90508281526020810184848401111561084357610842610754565b5b61084e848285610805565b509392505050565b600082601f83011261086b5761086a61074f565b5b813561087b848260208601610814565b91505092915050565b60006020828403121561089a57610899610745565b5b600082013567ffffffffffffffff8111156108b8576108b761074a565b5b6108c484828501610856565b91505092915050565b600073ffffffffffffffffffffffffffffffffffffffff82169050919050565b60006108f8826108cd565b9050919050565b610908816108ed565b82525050565b600060208201905061092360008301846108ff565b92915050565b600080604083850312156109405761093f610745565b5b600083013567ffffffffffffffff81111561095e5761095d61074a565b5b61096a85828601610856565b925050602083013567ffffffffffffffff81111561098b5761098a61074a565b5b61099785828601610856565b9150509250929050565b6000819050919050565b6109b4816109a1565b82525050565b60006020820190506109cf60008301846109ab565b92915050565b600082825260208201905092915050565b60006109f1826105f3565b6109fb81856109d5565b9350610a0b81856020860161060f565b610a1481610639565b840191505092915050565b60006020820190508181036000830152610a3981846109e6565b905092915050565b7f4e487b7100000000000000000000000000000000000000000000000000000000600052602260045260246000fd5b60006002820490506001821680610a8857607f821691505b602082108103610a9b57610a9a610a41565b5b50919050565b7f486173682063616e6e6f7420626520656d707479000000000000000000000000600082015250565b6000610ad76014836109d5565b9150610ae282610aa1565b602082019050919050565b60006020820190508181036000830152610b0681610aca565b9050919050565b60008190508160005260206000209050919050565b60006020601f8301049050919050565b600082821b905092915050565b600060088302610b6f7fffffffffffffffffffffffffffffffffffffffffffffffffffffffffffffffff82610b32565b610b798683610b32565b95508019841693508086168417925050509392505050565b6000819050919050565b6000610bb6610bb1610bac846109a1565b610b91565b6109a1565b9050919050565b6000819050919050565b610bd083610b9b565b610be4610bdc82610bbd565b848454610b3f565b825550505050565b600090565b610bf9610bec565b610c04818484610bc7565b505050565b5b81811015610c2857610c1d600082610bf1565b600181019050610c0a565b5050565b601f821115610c6d57610c3e81610b0d565b610c4784610b22565b81016020851015610c56578190505b610c6a610c6285610b22565b830182610c09565b50505b505050565b600082821c905092915050565b6000610c9060001984600802610c72565b1980831691505092915050565b6000610ca98383610c7f565b9150826002028217905092915050565b610cc2826105f3565b67ffffffffffffffff811115610cdb57610cda610759565b5b610ce58254610a70565b610cf0828285610c2c565b600060209050601f831160018114610d235760008415610d11578287015190505b610d1b8582610c9d565b865550610d83565b601f198416610d3186610b0d565b60005b82811015610d5957848901518255600182019150602085019450602081019050610d34565b86831015610d765784890151610d72601f891682610c7f565b8355505b6001600288020188555050505b505050505050565b60006040820190508181036000830152610da581856109e6565b9050610db460208301846109ab565b9392505050565b7f46696c652049442063616e6e6f7420626520656d707479000000000000000000600082015250565b6000610df16017836109d5565b9150610dfc82610dbb565b602082019050919050565b60006020820190508181036000830152610e2081610de4565b9050919050565b600081905092915050565b6000610e3d826105f3565b610e478185610e27565b9350610e5781856020860161060f565b80840191505092915050565b6000610e6f8284610e32565b91508190509291505056fea26469706673582212204875f4bbe46ec1c93117a786ce961e302398d8e4967ac5b1f016848bb27dcf7164736f6c63430008130033",
  "immutableReferences": {},
  "source": "// SPDX-License-Identifier: MIT\r\npragma solidity ^0.8.19;\r\n\r\ncontract IPFSStorage {\r\n    string private ipfsHash;\r\n    address public owner;\r\n    event HashStored(address indexed sender, string ipfsHash, uint256 timestamp);\r\n    mapping(string => string) private fileHashes;\r\n    string[] private fileIds;\r\n\r\n    constructor() {\r\n        owner = msg.sender;\r\n    }\r\n\r\n    function setHash(string memory _ipfsHash) public {\r\n        require(bytes(_ipfsHash).length > 0, \"Hash cannot be empty\");\r\n        ipfsHash = _ipfsHash;\r\n        emit HashStored(msg.sender, _ipfsHash, block.timestamp);\r\n    }\r\n\r\n    function getHash() public view returns (string memory) {\r\n        return ipfsHash;\r\n    }\r\n\r\n    function setFileHash(string memory _fileId, string memory _ipfsHash) public {\r\n        require(bytes(_fileId).length > 0, \"File ID cannot be empty\");\r\n        require(bytes(_ipfsHash).length > 0, \"Hash cannot be empty\");\r\n        \r\n        if (bytes(fileHashes[_fileId]).length == 0) {\r\n            fileIds.push(_fileId);\r\n        }\r\n        \r\n        fileHashes[_fileId] = _ipfsHash;\r\n        emit HashStored(msg.sender, _ipfsHash, block.timestamp);\r\n    }\r\n\r\n    function getFileHash(string memory _fileId) public view returns (string memory) {\r\n        return fileHashes[_fileId];\r\n    }\r\n\r\n    function getFileCount() public view returns (uint256) {\r\n        return fileIds.length;\r\n    }\r\n\r\n    function getAllFileIds() public view returns (string[] memory) {\r\n        return fileIds;\r\n    }\r\n}",
  "sourcePath": "C:\\Users\\malak\\Documents\\ipfs-storage\\contracts\\IPFSStorage.sol",
  "compiler": {
    "name": "solc",
    "version": "0.8.19+commit.7dd6d404.Emscripten.clang"
  },
  "schemaVersion": "3.4.16",
  "updatedAt": "2025-12-25T06:56:30.739Z",
  "networkType": "ethereum",
  "devdoc": {
    "kind": "dev",
    "methods": {},
    "version": 1
  },
  "userdoc": {
    "kind": "user",
    "methods": {},
    "version": 1
  }
}